:03000000020006F5
:10005F00750801750900750A0B750B00750C0D7588
:10006F000D00750E04750F007510077511007512D0
:10007F000CE4F513F514F515751609F51775180534
:10008F00F519751A02F51B751C0AF51D751E0FF56E
:10009F001F752006F521752208F523752403F52514
:0800AF0075260EF5270200037F
:0300030002015B9C
:1000B700E4F528F529E4F52CF52D740FC39528FAF6
:1000C700E49529FBE4F52AF52BC3E52A9AE52B6489
:1000D700808BF063F08095F0505BE52A252AFEE5DA
:1000E7002B33EE2408F9870609870719E52AF52E29
:1000F7000425E02408F8860408860518C3EC9EED5D
:1001070064808FF063F08095F05020E52E0425E0A1
:100117002408F8860408860518A70409A70519A660
:100127000608A60718752C01752D00052AE4B52ABF
:1001370098052B8094E52C452D60180528E4B528F3
:10014700020529C3E528940FE529648094805003AC
:070157000200BC220200B708
:06003500E478FFF6D8FD9F
:100013007900E94400601B7A00900162780175A0C1
:1000230000E493F2A308B8000205A0D9F4DAF2754C
:02003300A0FF2C
:10003B007800E84400600A790175A000E4F309D860
:10004B00FC7800E84400600C7900900001E4F0A318
:04005B00D8FCD9FAFA
:0D00060075812E12015EE582600302000389
:04015E007582002284
:00000001FF
