:03000000020006F5
:03005F0002000399
:0300030002009563
:20006200AD82AE83AFF0E5082DFAE5093EFB8F048A828B838CF01200CAFCBCE4028011050B
:2000820008E4B5080205098D828E838FF00200628C8022750A00750B01750C02750D0575F5
:2000A2000E0F750F6475103C75110875126375130B7514E475152C751601E4F508F509904F
:0800C200000A75F04002006223
:06003500E478FFF6D8FD9F
:200013007900E94400601B7A009000EA780175A000E493F2A308B8000205A0D9F4DAF275A9
:02003300A0FF2C
:20003B007800E84400600A790175A000E4F309D8FC7800E84400600C7900900001E4F0A3C3
:04005B00D8FCD9FAFA
:0D0006007581161200E6E58260030200031A
:1C00CA0020F71430F6148883A88220F507E6A88375830022E280F7E49322E02245
:0400E60075820022FD
:00000001FF
